:100000000C942A000C947C160C9447000C94470026
:100010000C9447000C9408160C9447000C945E1541
:100020000C9447000C94EF140C9431140C9447007A
:100030000C9447000C9447000C9447000C94470024
:100040000C9447000C9447000C9447000C94470014
:100050000C94470011241FBECFE5D8E0DEBFCDBF12
:1000600010E0A0E6B0E0E8E0F4E402C005900D92F4
:10007000AE3AB107D9F711E0AEEAB0E001C01D9287
:10008000A439B107E1F70E9417050C9402220C94E1
:1000900000009C0180E060E040E00E94540B089565
:1000A00060E00E940207089561E00E94020708953F
:1000B0001F93162F60E00E940207812F60E00E94CC
:1000C00002071F9108951F93162F61E00E940207F7
:1000D000812F61E00E9402071F9108951F93162F40
:1000E00060E00E940207812F61E00E9402071F91D9
:1000F00008951F93162F61E00E940207812F60E090
:100100000E9402071F910895DF92EF92FF920F93D2
:100110001F93D82E8B01F42EE52E60E070E00E9434
:10012000AE0780E060E040E02F2D3E2D0E94540B92
:1001300086E0B8010E94AE0780E060E040E02F2D2D
:100140003E2D0E94540B8D2D60E070E00E94AE07A2
:1001500080E060E040E02F2D3E2D0E94540B109572
:1001600001951F4F8D2DB8010E94AE0780E060E021
:1001700040E02F2D3E2D0E94540B8D2D60E070E04D
:100180000E94AE0780E060E040E02F2D3E2D0E94EF
:10019000540B1F910F91FF90EF90DF9008950F93F4
:1001A0001F938A010E94AE0780E060E040E0980162
:1001B0000E94540B1F910F9108950F931F938A0172
:1001C0000E94AE0780E060E040E098010E94540B7E
:1001D0001F910F9108959F92AF92BF92CF92DF929D
:1001E000EF92FF920F931F93CF93DF93982E5B01B3
:1001F0006901C0E0D0E07A010027F7FC0095102FDC
:100200000BC0C801B7010E94761DAB01BC01892D4E
:1002100096010E94CF0C2196CA15DB0594F3DF915D
:10022000CF911F910F91FF90EF90DF90CF90BF90F3
:10023000AF909F9008950F931F93982F062F122F22
:1002400081E0692F0E94D60782E0602F412F0E9433
:10025000D6071F910F9108950F931F938B012227AB
:100260003327281B390B85E090E065E070E0A90199
:100270000E941B0180E060E040E098010E94540B66
:100280001F910F9108950F931F939C018B0184E0A0
:1002900090E064E070E0A9010E941B0180E060E052
:1002A00040E098010E94540B1F910F9108950F9305
:1002B0001F938C0186E090E066E070E040E050E043
:1002C00020E030E00E941B0180E060E040E0980107
:1002D0000E94540B1F910F9108950F931F939B0140
:1002E0008A0144275527481B590B85E090E064E0BC
:1002F00070E00E941B0180E060E040E098010E94F5
:10030000540B1F910F9108950F931F93FC019B01B4
:100310008A01309521953F4F84E090E065E070E0E0
:10032000AF010E941B0180E060E040E098010E9464
:10033000540B1F910F9108950F931F938B01222748
:100340003327281B390B85E090E065E070E0A901B8
:100350000E941B0180E060E040E098010E94540B85
:100360001F910F9108950F931F939C018B0184E0BF
:1003700090E064E070E0A9010E941B0180E060E071
:1003800040E098010E94540B1F910F91089583E063
:1003900061E00E94020785E090E064E670E00E9460
:1003A000B3010895EF92FF921F93CF93DF937B01E8
:1003B000CC27DD27C81BD90B83E064E670E042E060
:1003C0000E94FD11182F85E090E064E070E0AE011E
:1003D00097010E941B01113079F788EC90E00E9490
:1003E0005701DF91CF911F91FF90EF900895EF9209
:1003F000FF921F93CF93DF937C01CC27DD27C61B91
:10040000D70B83E064E670E042E00E94FD11182FF4
:1004100084E090E065E070E0A7019E010E941B016E
:10042000113079F788EC90E00E945701DF91CF916D
:100430001F91FF90EF9008956F927F928F929F92FD
:10044000AF92BF92CF92DF92EF92FF920F931F93E2
:10045000CF93DF933C018B0188249924861A970A55
:1004600081E062E370E042E00E94FD11A82EBB240F
:1004700082E062E370E042E00E94FD11E82EFF247A
:1004800083E064E670E042E00E94FD11C82EDD24A6
:1004900084E064E670E042E00E94FD11C82FD0E0E5
:1004A00085E06BE470E042E00E94FD1121E0A216BD
:1004B000B10429F491E0E916F10469F41AC021E0CD
:1004C000E216F10441F491E0C916D10491F0C13073
:1004D000D10541F40EC021E0C216D10419F42197D0
:1004E00001F507C090E0C130D10509F581309105D3
:1004F000F1F484E690E00E945701C80164E670E0E0
:100500000E94B301DF91CF911F910F91FF90EF9067
:10051000DF90CF90BF90AF909F908F907F906F9023
:10052000089584E090E064E070E0A80126C021E036
:10053000A216B10439F484E090E065E070E0A8010F
:1005400094011CC021E0E216F10431F484E090E053
:1005500064E070E0A30111C0219739F484E090E0D9
:1005600064E070E0A801930109C0019709F078CF19
:1005700085E090E064E070E0A40198010E941B0116
:100580006FCF6F927F928F929F92AF92BF92CF92D6
:10059000DF92EF92FF920F931F93CF93DF933C0173
:1005A0008B0188249924861A970A81E064E670E01A
:1005B00042E00E94FD11A82EBB2482E064E670E0B8
:1005C00042E00E94FD11E82EFF2483E064E670E023
:1005D00042E00E94FD11C82EDD2484E064E670E054
:1005E00042E00E94FD11C82FD0E085E064E670E093
:1005F00042E00E94FD1121E0A216B10429F491E02D
:10060000E916F10469F41AC021E0E216F10441F49C
:1006100091E0C916D10491F0C130D10541F40EC06A
:1006200021E0C216D10419F4219701F507C090E02A
:10063000C130D10509F581309105F1F484E690E0EF
:100640000E945701C80164E670E00E94B301DF9187
:10065000CF911F910F91FF90EF90DF90CF90BF90BF
:10066000AF909F908F907F906F90089584E090E07E
:1006700064E070E0A80126C021E0A216B10439F4BC
:1006800084E090E065E070E0A80194011CC021E0E6
:10069000E216F10431F484E090E064E070E0A3013C
:1006A00011C0219739F484E090E064E070E0A80183
:1006B000930109C0019709F078CF85E090E064E0EC
:1006C00070E0A40198010E941B016FCFEF92FF928E
:1006D0000F931F938C017B010E94C10281E090E087
:1006E00062E070E00E947900C801B7010E94D20167
:1006F00081E090E062E070E00E9458001F910F914D
:10070000FF90EF900895EF92FF920F931F938C014B
:100710007B01CB01B8010E94C10281E090E062E060
:1007200070E00E946E00C801B7010E94F70181E0ED
:1007300090E062E070E00E9458001F910F91FF90DE
:10074000EF900895CF92DF92EF92FF920F931F9355
:100750008C017B016A010E94C10281E090E062E0AD
:1007600070E00E947900C801B701A6010E946D01E6
:1007700081E090E062E070E00E9458001F910F91CC
:10078000FF90EF90DF90CF900895CF92DF92EF929D
:10079000FF920F931F938C017B016A01CB01B8017B
:1007A0000E94C10281E090E062E070E00E946E0071
:1007B000C801B701A6010E94840181E090E062E0D7
:1007C00070E00E9458001F910F91FF90EF90DF9012
:1007D000CF90089585E090E065E070E00E94C1024E
:1007E00083E060E00E94020787EE93E00E945701D9
:1007F00008950F931F93CF93DF93EC0182E064E69B
:1008000070E042E00E94FD11182FCE01BE0141E0D0
:1008100050E00E946D01113089F784E064E670E0D9
:1008200042E00E94FD11182FCE01BE0141E050E0D0
:100830000E948401113089F782E064E670E042E0B2
:100840000E94FD11082F10E084E064E670E042E0B1
:100850000E94FD1190E00130110539F486E090E02E
:1008600064E070E040E050E009C0012B49F40097DB
:1008700039F484E090E064E070E0AE019E0109C0CC
:100880000197D1F684E090E066E070E0AE0120E0F0
:1008900030E00E941B01D0CF0F931F938B010E9469
:1008A000C10284E040E050E86BEB74E422E330E006
:1008B0000E94CF0C84E040E050E86BEB74E422E34C
:1008C00030E00E94CF0CC8010E94F9031F910F91E4
:1008D0000895AF92BF92CF92DF92EF92FF920F9363
:1008E0001F93CF93DF93EC01AA24BB24A81AB90A63
:1008F00081E064E670E042E00E94FD11182F82E082
:1009000064E670E042E00E94FD11E82EFF2483E0DF
:1009100064E670E042E00E94FD11082F84E064E686
:1009200070E042E00E94FD11C82EDD2485E064E6FF
:1009300070E042E00E94FD11113069F484E090E023
:1009400065E070E0AE0195010E941B0181E0E816B0
:10095000F10471F62DC091E0E916F10451F484E040
:1009600090E066E070E0AE0120E030E00E941B0104
:100970001FC0002331F484E090E064E070E0AE0139
:1009800013C091E0C916D10439F486E090E064E028
:1009900070E040E050E008C0813009F0A9CF85E068
:1009A00090E064E070E0A5019E010E941B01A0CFD1
:1009B00081E0C816D10409F09BCF88EC90E00E943A
:1009C0005701CE0162E370E00E94B301DF91CF9145
:1009D0001F910F91FF90EF90DF90CF90BF90AF905D
:1009E00008950F931F938B010E94C10284E040E0A1
:1009F00050E061E674E422E330E00E94CF0C84E032
:100A000040E050E862EA74E422E330E00E94CF0C58
:100A100084E040E050E869E874E422E330E00E94BA
:100A2000CF0CC8010E9469041F910F9108950E9484
:100A30004A0E86E090E065E070E00E94C10287E027
:100A400090E065E070E00E94C10287E090E065E020
:100A500070E00E94C10284E090E062E370E00E94D6
:100A60002C0185E090E065E070E04AEF50E00E94E4
:100A7000840187E090E065E070E00E94C10285E0BB
:100A800090E064E670E00E94B30187E090E065E0EA
:100A900070E00E94C10284E090E062E370E00E9496
:100AA0002C0182E090E064E070E04AEF50E00E94A8
:100AB000840187E090E065E070E00E94C10284E07C
:100AC00090E062E370E00E942C0185E090E065E038
:100AD00070E04AEF50E00E94840187E090E064E01B
:100AE00070E00E94C10284E090E062E370E00E9446
:100AF0002C0184EF91E00E94570185E090E064E6CC
:100B000070E00E949C0184E090E069E170E00E9446
:100B1000430185E090E065E070E048EC50E00E9421
:100B20006D0187E090E064E070E00E94C10284E023
:100B300090E062E370E00E942C0184E090E064E0C9
:100B400070E042E350E00E94840187E090E064E0BE
:100B500070E00E94C10285E090E062E370E00E94D4
:100B6000B30187E090E064E070E00E94C10284E09D
:100B700090E062E370E00E942C0184E090E064E089
:100B800070E042E350E00E94840187E090E064E07E
:100B900070E00E94C10284E090E062E370E00E9495
:100BA000B30187E090E064E070E00E94C10284E05D
:100BB00090E062E370E00E942C0185E090E065E047
:100BC00070E048EC50E00E94840187E090E064E02F
:100BD00070E00E94C10284E090E062E370E00E9455
:100BE0002C0184EF91E00E94570184E090E068ECD2
:100BF00070E00E949C0183E090E062E370E00E945C
:100C0000430185E090E065E070E048EC50E00E9430
:100C10006D0187E090E065E070E00E94C10284E031
:100C200090E062E370E00E942C0185E090E065E0D6
:100C300070E04AEF50E00E94840186E090E065E0B9
:100C400070E00E94C10284E090E062E370E00E94E4
:100C50002C0185E090E065E070E04AEF50E00E94F2
:100C60006D0186E090E065E070E00E94C10284E0E2
:100C700090E062E370E00E942C0184EF91E00E941A
:100C8000570184E090E068EC70E00E949C0183E0F2
:100C900090E062E370E00E94430185E090E065E04F
:100CA00070E048EC50E00E94840186E090E065E04E
:100CB00070E00E94C10284E090E064E670E00E946F
:100CC000B30185E090E064E070E00E941C0283E0E4
:100CD00090E062E370E00E942C0185E090E065E026
:100CE00070E048EC50E00E946D0186E090E064E026
:100CF00070E00E941C0286E090E062E370E00E94D7
:100D00002C0188EE93E00E94570183E090E064E6B6
:100D100070E00E949C0182E090E062E370E00E943B
:100D2000430185E090E065E070E04AEF50E00E940A
:100D3000840185E090E064E070E00E94C10285E0FB
:100D400090E062E370E00E942C0185E090E065E0B5
:100D500070E04AEF50E00E94840184E090E064E09B
:100D600070E00E941C028AE090E062E370E00E9462
:100D70002C0188EE93E00E94570185E090E064E644
:100D800070E00E949C0185E090E065E070E048EC36
:100D900050E00E946D0187E090E064E070E00E9406
:100DA000C10285E090E062E370E00E942C0185E0E2
:100DB00090E065E070E048EC50E00E94840187E03C
:100DC00090E065E070E00E94C10286E090E062E39E
:100DD00070E00E942C0185E090E064E670E00E94E3
:100DE000B30187E090E065E070E00E94C10285E019
:100DF00090E06AE070E00E942C0188EE93E00E948F
:100E000057010895843021F1853038F48230A1F003
:100E10008330C0F48130C9F509C0863029F18630AD
:100E2000E8F0873039F1883081F52AC0662311F463
:100E3000C0980895C09A0895662311F4C198089542
:100E4000C19A0895662311F4C2980895C29A08952C
:100E5000662311F494980895949A0895662311F4E2
:100E600095980895959A0895662311F4C598089564
:100E7000C59A0895662311F4C6980895C69A0895F0
:100E8000662311F4C7980895C79A0895843021F114
:100E9000853038F48230A1F08330C0F48130C9F558
:100EA00009C0863029F18630E8F0873039F1883082
:100EB00081F52AC0662311F4C0980895C09A089558
:100EC000662311F4C1980895C19A0895662311F418
:100ED000C2980895C29A0895662311F494980895CB
:100EE000949A0895662311F495980895959A089513
:100EF000662311F4C5980895C59A0895662311F4E0
:100F0000C6980895C69A0895662311F4C79808955F
:100F1000C79A08958430C1F0853038F4823081F06A
:100F2000833080F48130C9F409C0863089F086307E
:100F300068F0873079F0883081F40EC0C098089549
:100F4000C1980895C2980895949808959598089521
:100F5000C5980895C6980895C79808958430C1F03B
:100F6000853038F4823081F0833080F48130E9F4C8
:100F700009C0863089F0863068F0873079F0883093
:100F8000A1F410C081E00BC082E009C083E007C07B
:100F900084E005C085E003C086E001C087E00E94D0
:100FA000DC13089588E00E94DC130895813069F411
:100FB000653031F0663039F06430F1F580E033C0EF
:100FC0004F7080E02CC080E01EC0823071F465302C
:100FD00031F0663039F0643079F581E020C04F702F
:100FE00081E021C081E060E00FC0833079F465309A
:100FF00031F0663039F06430F9F482E014C04F709B
:1010000082E00DC082E061E040E00EC08430A1F4D7
:10101000653039F0663059F0643071F483E060E097
:1010200003C04F7083E061E00E947C13089583E069
:1010300060E040E00E947C130895623009F0FDC03A
:10104000843009F46BC0853048F4823079F1833004
:1010500008F048C0813009F0EFC10DC0863009F4B6
:1010600095C0863008F476C0873009F4ABC088306C
:1010700009F0E2C1C3C09091C4009093C500C89B21
:101080000EC02FEF30E742E0215030404040E1F702
:1010900000C00000C89B05C08093C40002C010922D
:1010A000C4009091C4008091C500C3C08091C60067
:1010B0008093C700C99B0FC08FEF90E7A2E08150DB
:1010C0009040A040E1F700C00000C99B06C081E04D
:1010D0008093C60002C01092C6009091C600809115
:1010E000C700A7C08091C8008093C900CA9B0FC0E9
:1010F0002FEF30E742E0215030404040E1F700C0A0
:101100000000CA9B06C081E08093C80002C0109214
:10111000C8009091C8008091C9008BC08091CA001E
:101120008093CB00CB9B0FC08FEF90E7A2E0815064
:101130009040A040E1F700C00000CB9B06C081E0DA
:101140008093CA0002C01092CA009091CA00809198
:10115000CB006FC08091CC008093CD00CC9B0FC0A2
:101160002FEF30E742E0215030404040E1F700C02F
:101170000000CC9B06C081E08093CC0002C010929E
:10118000CC009091CC008091CD0053C08091CE00D6
:101190008093CF00CD9B0FC08FEF90E7A2E08150EE
:1011A0009040A040E1F700C00000CD9B06C081E068
:1011B0008093CE0002C01092CE009091CE0080911C
:1011C000CF0037C08091D0008093D100CE9B0FC05C
:1011D0002FEF30E742E0215030404040E1F700C0BF
:1011E0000000CE9B06C081E08093D00002C0109228
:1011F000D0009091D0008091D1001BC08091D2008E
:101200008093D300CF9B0FC08FEF90E7A2E0815077
:101210009040A040E1F700C00000CF9B06C081E0F5
:101220008093D20002C01092D2009091D20080919F
:10123000D300981709F0FBC0FFC0613009F0FBC074
:10124000843009F469C0853048F4823079F1833004
:1012500008F047C0813009F0EFC00DC0863009F4B6
:1012600091C0863008F473C0873009F4A6C0883076
:1012700009F0E2C0BFC09091D4009093D500C89B04
:101280000EC02FEF30E742E0215030404040E1F700
:1012900000C00000C89B05C08093D40002C010921B
:1012A000D4009091D5008091D400A1C08091D60047
:1012B0008093D700C99B0EC08FEF90E7A2E08150CA
:1012C0009040A040E1F700C00000C99B05C06093BA
:1012D000D60002C01092D6009091D7008091D6001F
:1012E00086C08091D8008093D900CA9B0EC02FEF92
:1012F00030E742E0215030404040E1F700C00000BC
:10130000CA9B05C06093D80002C01092D80090918B
:10131000D9008091D8006BC08091DA008093DB0007
:10132000CB9B0EC08FEF90E7A2E081509040A04091
:10133000E1F700C00000CB9B05C06093DA0002C05B
:101340001092DA009091DB008091DA0050C0809119
:10135000DC008093DD00CC9B0EC02FEF30E742E035
:10136000215030404040E1F700C00000CC9B05C058
:101370006093DC0002C01092DC009091DD0080914F
:10138000DC0035C08091DE008093DF00CD9B0EC075
:101390008FEF90E7A2E081509040A040E1F700C0BD
:1013A0000000CD9B05C06093DE0002C01092DE00FD
:1013B0009091DF008091DE001AC08091E000809360
:1013C000E100CE9B0EC02FEF30E742E021503040CD
:1013D0004040E1F700C00000CE9B05C06093E000F4
:1013E00002C01092E0009091E1008091E000891726
:1013F000F1F422C08091E2008093E300CF9B0FC004
:101400008FEF90E7A2E081509040A040E1F700C04C
:101410000000CF9B06C081E08093E20002C01092E2
:10142000E2009091E3008091E200891739F081E0B9
:10143000992329F001C0089580E0089580E008957F
:10144000CF93DF93EB01413061F58430D1F08530EB
:1014500040F4823091F0833090F4813009F04FC035
:101460000AC0863091F0863070F0873081F0883085
:1014700009F045C00EC080E00DC081E00BC082E0E5
:1014800009C083E007C084E005C085E003C086E0B2
:1014900001C087E00E94251121E08C179D0780F58F
:1014A0002EC0423059F58430C1F0853038F4823096
:1014B00081F0833080F4813011F509C0863089F0E5
:1014C000863068F08730B1F08830C9F415C080E00C
:1014D00009C081E007C082E005C083E003C084E06A
:1014E00001C085E00E94251121E033E08338930795
:1014F00038F005C086E0F6CF87E0F4CF02C020E0E8
:10150000822FDF91CF910895CF93DF93EB0141308C
:1015100061F58430D1F0853040F4823091F0833031
:1015200090F4813009F04FC00AC08630C1F0863097
:1015300070F08730B1F0883009F045C014C080E009
:1015400007C081E005C082E003C083E001C084E001
:101550000E94251121E08C179D07B0F534C085E06D
:10156000F7CF86E0F5CF87E0F3CF423059F58430EE
:10157000C1F0853038F4823081F0833080F48130DE
:1015800011F509C0863089F0863068F08730B1F0F7
:101590008830C9F415C080E009C081E007C082E04E
:1015A00005C083E003C084E001C085E00E942511EE
:1015B00021E033E08338930738F005C086E0F6CFAA
:1015C00087E0F4CF02C020E0822FDF91CF91089511
:1015D0001F93162F413071F58430D1F0853040F4DF
:1015E000823091F0833090F4813009F051C00AC00C
:1015F0008630D1F08630B0F08730C1F0883009F005
:1016000047C016C080E005C081E003C082E001C091
:1016100083E00E942511612F70E021E08617970773
:10162000C0F536C084E0F5CF85E0F3CF86E0F1CF9A
:1016300087E0EFCF442361F58430C1F0853038F482
:10164000823081F0833080F4813011F509C086301A
:1016500089F0863068F0873079F08830C9F416C098
:1016600080E00BC081E009C082E007C083E005C0D4
:1016700084E003C085E001C086E00E942511612F4F
:1016800070E021E08617970720F002C087E0F5CFD1
:1016900020E0822F1F9108952091250191E02813C9
:1016A00090E0892F0895FFCFAF92BF92CF92DF9243
:1016B000EF92FF920F931F93E82FF62FC901009727
:1016C00091F06AE070E00E94B11D9B0180E090E023
:1016D00007C0AFE3BCE91197F1F700C00000019625
:1016E00082179307B0F3442391F020E030E050E0FC
:1016F0000BC06FEF73ED80E3615070408040E1F705
:1017000000C000002F5F3F4F2417350794F3FF23DD
:10171000A9F08CE3F89FC001112420E030E00BC059
:101720004FEF53ED60E3415050406040E1F700C09F
:1017300000002F5F3F4F2817390794F3EE23B1F1D4
:10174000F0E080E19EE0E89FB001E99F700DF89F16
:10175000700D1124882777FD8095982F0E94761DA3
:101760005B016C01EE24FF2400E010E015C06FEF78
:1017700073ED80E3615070408040E1F700C00000ED
:101780006E2D7F2D802F912F20E030E040E85FE329
:101790000E9447197B018C016E2D7F2D802F912F88
:1017A000A60195010E944A1B87FDE1CF1F910F9171
:1017B000FF90EF90DF90CF90BF90AF900895EF92A1
:1017C000FF920F931F937B018C0124EA30E74DE1D8
:1017D0005FE30E941A1B18162CF48FEA99E0019718
:1017E000F1F7D6C0C801B70126EF38E24CE15FE35C
:1017F0000E941A1B18162CF48BE999E00197F1F757
:10180000C7C0C801B7012DE637EE4BE15FE30E9488
:101810001A1B18162CF487E899E00197F1F7B8C065
:10182000C801B70129E23CE54FE05FE30E941A1BC3
:1018300018162CF487EE98E00197F1F7A9C0C801BB
:10184000B70124E13EEA47E05FE30E941A1B181645
:101850002CF48FE598E00197F1F79AC0C801B70121
:1018600028E431EE4AEF5EE30E941A1B18162CF4AE
:1018700087EE97E00197F1F78BC0C801B7012FE120
:1018800035E84BEE5EE30E941A1B18162CF483E732
:1018900097E00197F1F77CC0C801B7012EEA37E461
:1018A00041EE5EE30E941A1B18162CF487E097E0C5
:1018B0000197F1F76DC0C801B70125E83BEE41ED96
:1018C0005EE30E941A1B18162CF483EA96E0019737
:1018D000F1F75EC0C801B70124E13EEA47EC5EE3E0
:1018E0000E941A1B18162CF487E496E00197F1F772
:1018F0004FC0C801B70124EA30E74DEB5EE30E9418
:101900001A1B18162CF48FEE95E00197F1F740C0E2
:10191000C801B70127ED33EA40EB5EE30E941A1BD2
:1019200018162CF483E995E00197F1F731C0C8014E
:10193000B70126E636E646EA5EE30E941A1B181651
:101940002CF483E495E00197F1F722C0C801B701B8
:101950002EEA37E441EA5EE30E941A1B18162CF4C3
:101960008FEF94E00197F1F713C0C801B7012AE99E
:1019700039E949E95EE30E941A1B18162CF487ED39
:1019800094E00197F1F704C08FEA94E00197F1F732
:1019900000C000001F910F91FF90EF9008956F928B
:1019A0007F928F929F92AF92BF92CF92DF92EF92EF
:1019B000FF920F931F93CF93DF93182F6A017B0140
:1019C000E90160E070E080E89FE3A70196010E94D2
:1019D0006E1A20E030E04AE754E40E947419D62ED3
:1019E000E72EC82EB92EBE01882777FD8095982F47
:1019F0000E94761D2D2D3E2D4C2D5B2D0E946E1AC2
:101A00000E947A1B3B014C016D2D7E2D8C2D9B2D50
:101A100020E030E040E05FE30E9474196B01B82ED3
:101A2000A92E143019F1153040F4123039F1133069
:101A300008F5113009F001C125C0163079F01630D3
:101A400088F0173039F0183009F0F7C0EE24FF2481
:101A50008701EEC0EE24FF248701CFC0EE24FF24CF
:101A60008701B0C0EE24FF24870191C0EE24FF243B
:101A7000870172C0EE24FF24870153C0EE24FF24A7
:101A8000870134C0EE24FF24870115C095016C2D19
:101A90007D2D832F9A2D0E94DF0BC09A95016C2D0E
:101AA0007D2D832F9A2D0E94DF0BC0980894E11C96
:101AB000F11C011D111DE614F7040805190534F386
:101AC000BCC095016C2D7D2D832F9A2D0E94DF0BBC
:101AD000C19A95016C2D7D2D832F9A2D0E94DF0BCD
:101AE000C1980894E11CF11C011D111DE614F704B6
:101AF0000805190534F3A1C095016C2D7D2D832FA8
:101B00009A2D0E94DF0BC29A95016C2D7D2D832F9B
:101B10009A2D0E94DF0BC2980894E11CF11C011D54
:101B2000111DE614F7040805190534F386C0950164
:101B30006C2D7D2D832F9A2D0E94DF0B949A950199
:101B40006C2D7D2D832F9A2D0E94DF0B9498089485
:101B5000E11CF11C011D111DE614F704080519050F
:101B600034F36BC095016C2D7D2D832F9A2D0E942F
:101B7000DF0B959A95016C2D7D2D832F9A2D0E9458
:101B8000DF0B95980894E11CF11C011D111DE61452
:101B9000F7040805190534F350C095016C2D7D2D0F
:101BA000832F9A2D0E94DF0BC59A95016C2D7D2DF8
:101BB000832F9A2D0E94DF0BC5980894E11CF11C1D
:101BC000011D111DE614F7040805190534F335C08D
:101BD00095016C2D7D2D832F9A2D0E94DF0BC69AC7
:101BE00095016C2D7D2D832F9A2D0E94DF0BC698B9
:101BF0000894E11CF11C011D111DE614F7040805F1
:101C0000190534F31AC095016C2D7D2D832F9A2D63
:101C10000E94DF0BC79A95016C2D7D2D832F9A2D85
:101C20000E94DF0BC7980894E11CF11C011D111DD7
:101C3000E614F7040805190534F3DF91CF911F91DD
:101C40000F91FF90EF90DF90CF90BF90AF909F905B
:101C50008F907F906F900895D098D89AD198D99A04
:101C6000D298DA9AD398DB9AD498DC9AD598DD9AF0
:101C7000D698DE9AD798DF9A0895B89AB99ABA9A00
:101C80008C9A8D9ABD9ABE9ABF9AA69AA79AA49A40
:101C9000A59A08950E94E5150E942C0E0E943D0E03
:101CA00068E070E080E090E00E94F2100E9418115D
:101CB0001092C5001092C4001092C7001092C60086
:101CC0001092C9001092C8001092CB001092CA0066
:101CD0001092CD001092CC001092CF001092CE0046
:101CE0001092D1001092D0001092D3001092D20026
:101CF0001092D5001092D4001092D7001092D60006
:101D00001092D9001092D8001092DB001092DA00E5
:101D10001092DD001092DC001092DF001092DE00C5
:101D20001092E1001092E0001092E3001092E200A5
:101D30001092E4001092E5001092E6001092E70085
:101D40001092E8001092E9001092EA001092EB0065
:101D50001092EC001092ED001092EE001092EF0045
:101D60001092F0001092F1001092F2001092F30025
:101D70001092AF001092AE001092B1001092B0001D
:101D80001092B3001092B2001092B5001092B400FD
:101D90001092B7001092B6001092B9001092B800DD
:101DA0001092BB001092BA001092BD001092BC00BD
:101DB00080E38093BE008093BF008093C000809337
:101DC000C1001092C30008951F93182F9B0141304A
:101DD000510551F48091C3008F5F8093C30080E070
:101DE00060E040E00E94540B8091C300181721F47A
:101DF0001092C30081E001C080E01F910895EF922E
:101E0000FF920F931F93CF93DF938C0167E670E0EF
:101E100080E090E00E94F2108FEF91EEA4E08150FC
:101E20009040A040E1F700C0000080E690E00E94F2
:101E30000411AFE3BCE91197F1F700C0000084E69C
:101E400090E00E9404118FE39CE90197F1F700C034
:101E500000008BE690E00E940411A02FED017E01AE
:101E6000F12EE70110E01CC00E94FE101F5F103130
:101E7000B9F48BE30E94FE108FE39CE90197F1F720
:101E800000C000008EE690E00E940411AFE3BCE9C0
:101E90001197F1F700C000008BE690E00E9404115A
:101EA0008991882309F78BE30E94FE108FE39CE958
:101EB0000197F1F700C00000AFE3BCE91197F1F71B
:101EC00000C0000068E070E080E090E00E94F21046
:101ED000DF91CF911F910F91FF90EF900895843083
:101EE000C1F0853038F4823081F0833080F4813065
:101EF000E9F409C0863089F0863068F0873079F0DF
:101F00008830A1F40EC080E00DC081E00BC082E0FB
:101F100009C083E007C084E005C085E003C086E017
:101F200001C087E00E9425119C0102C020E030E042
:101F3000C9010895E2ECF0E02AE030E0B9010E9426
:101F4000B11D805D8293CB0140E0EE3BF407B1F719
:101F50001092C200CF0108950E946F0F0E949A0F45
:101F60000E94041108950E94041108950E946F0FA9
:101F70000E949A0F0E94FF0E0895613009F08EC0F2
:101F8000843009F441C0853040F4823009F1833057
:101F900068F5813009F01EC10DC0863009F450C0CB
:101FA000863008F43FC0873009F458C0883009F003
:101FB00011C162C09091AE009093AF00C89B03C066
:101FC0008093AE0002C01092AE008091AE005EC061
:101FD0009091B0009093B100C99B03C06093B00092
:101FE00002C01092B0008091B00050C09091B20039
:101FF0009093B300CA9B03C06093B20002C01092DA
:10200000B2008091B20042C09091B4009093B500AC
:10201000CB9B03C06093B40002C01092B4008091C7
:10202000B40034C09091B6009093B700CC9B03C02D
:102030006093B60002C01092B6008091B60026C030
:102040009091B8009093B900CD9B03C06093B80005
:1020500002C01092B8008091B80018C09091BA00E8
:102060009093BB00CE9B03C06093BA0002C0109255
:10207000BA008091BA000AC09091BC009093BD0054
:1020800089B3881F8827881F8093BC00891709F4AB
:10209000A1C081E0992309F4A0C09CC0623009F07E
:1020A00098C0843009F443C0853040F4823009F18F
:1020B000833070F5813009F08DC00DC0863009F491
:1020C00054C0863008F442C0873009F45DC08830BF
:1020D00009F080C06AC09091AE009093AF00C89B99
:1020E00003C08093AE0002C01092AE008091AE009B
:1020F00059C09091B0009093B100C99B04C081E099
:102100008093B00002C01092B0008091B0004AC02D
:102110009091B2009093B300CA9B04C081E0809379
:10212000B20002C01092B2008091B2003BC0909108
:10213000B4009093B500CB9B04C081E08093B400C1
:1021400002C01092B4008091B4002CC09091B600EF
:102150009093B700CC9B04C081E08093B60002C08E
:102160001092B6008091B6001DC09091B800909377
:10217000B900CD9B04C081E08093B80002C01092EA
:10218000B8008091B8000EC09091BA009093BB0047
:10219000CE9B04C081E08093BA0002C01092BA00C6
:1021A0008091BA00891789F415C09091BC00909372
:1021B000BD00CF9B04C081E08093BC0002C01092A0
:1021C000BC008091BC00891739F081E0913011F496
:1021D00004C0089580E0089580E0089562E00E94C0
:1021E000BD0F0895272F382F492F552720BD69B9D6
:1021F0001BB888E18AB986E880BD08955D9BFECF53
:102200008CB95D9BFECF0895EF92FF92CF93DF9341
:10221000E82EE7017E01F92EE70102C00E94FE10C0
:1022200089918823D9F7DF91CF91FF90EF9008959E
:1022300087B1806C87B9379A86B1876086B908956F
:1022400097B1987F982B97B908950E942011369ADC
:10225000349BFECF349A24B135B1C9010895813041
:1022600011F483E801C087E886B9089593E896B928
:1022700020E0382F305A15B814B837B9369A349B45
:10228000FECF85B190E02F5F2A30A9F70895982FEF
:10229000623071F489B3282F30E0892F90E00197E4
:1022A00002C0359527958A95E2F7209530950DC0A7
:1022B000613079F489B3282F30E0892F90E00197BD
:1022C00002C0359527958A95E2F721703070C901D3
:1022D00008950895982F613061F489B3282F30E074
:1022E000892F90E0019702C0359527958A95E2F7EE
:1022F0000FC0623089F489B3282F30E0892F90E035
:10230000019702C0359527958A95E2F7209530957B
:1023100021703070C90108950895982F613061F4DB
:1023200089B3282F30E0892F90E0019702C03595BE
:1023300027958A95E2F70FC0623089F489B3282F78
:1023400030E0892F90E0019702C0359527958A9556
:10235000E2F72095309521703070C90108950895F5
:10236000982F613061F489B3282F30E0892F90E0F5
:10237000019702C0359527958A95E2F70FC0623024
:1023800089F489B3282F30E0892F90E0019702C0AB
:10239000359527958A95E2F7209530952170307014
:1023A000C90108950895982F613061F489B3282FE9
:1023B00030E0892F90E0019702C0359527958A95E6
:1023C000E2F70FC0623089F489B3282F30E0892FFB
:1023D00090E0019702C0359527958A95E2F7209500
:1023E000309521703070C9010895089570E090E033
:1023F0000E94DC1380E090E008951F93CF93DF9359
:10240000EB01142F81500E9436119C0187E886B998
:10241000113031F480E090E0C217D30740F405C0DA
:1024200080E090E02C173D0710F481E090E0DF9110
:10243000CF911F9108954BB3282F30E021503040A9
:1024400081E090E0022E02C0880F991F0A94E2F703
:10245000482B4BBB4AB3809584238ABB89B390E059
:1024600002C0959587952A95E2F78170089584308A
:1024700009F441C0853040F4823009F1833068F5B9
:10248000813009F07DC00DC0863009F450C086301F
:1024900008F43FC0873009F458C0883009F070C094
:1024A00062C08091F40080FD6BC08091F50080FDDA
:1024B00067C0662311F0C09A0895C098089580916E
:1024C000F40081FD5DC08091F50081FD59C0662357
:1024D00011F0C19A0895C19808958091F40082FD89
:1024E0004FC08091F50082FD4BC0662311F0C29A67
:1024F0000895C29808958091F40083FD41C08091B1
:10250000F50083FD3DC0662311F0949A08959498D8
:1025100008958091F40084FD33C08091F50084FD1E
:102520002FC0662311F0959A08959598089580918B
:10253000F40085FD25C08091F50085FD21C066234E
:1025400011F0C59A0895C59808958091F40086FD0C
:1025500017C08091F50086FD13C0662311F0C69A5E
:102560000895C69808958091F40087FD09C0809170
:10257000F50087FD05C0662311F0C79A0895C79836
:1025800008956B3008F061C0662309F05FC08430A5
:1025900079F1853040F48230C9F0833000F5813024
:1025A00009F0A9C00AC08630A9F1863050F1873001
:1025B000D1F1883009F09FC03FC08091F5008E7F37
:1025C0008093F5001092F600C09808958091F50070
:1025D0008D7F8093F5001092F700C1980895809147
:1025E000F5008B7F8093F5001092F800C298089553
:1025F0008091F500877F8093F5001092F900949800
:1026000008958091F5008F7E8093F5001092FA0076
:10261000959808958091F5008F7D8093F500109234
:10262000FB00C59808958091F5008F7B8093F5009D
:102630001092FC00C69808958091F5008F778093E2
:10264000F5001092FD00C79808956AE0843061F1AA
:10265000853040F48230C1F08330F0F4813009F0ED
:102660004AC00AC0863081F1863030F18730A1F14E
:10267000883009F040C038C08091F50081608093B7
:10268000F5006093F60008958091F50082608093D4
:10269000F5006093F70008958091F50084608093C1
:1026A000F5006093F80008958091F50088608093AC
:1026B000F5006093F90008958091F50080618093A2
:1026C000F5006093FA0008958091F5008062809390
:1026D000F5006093FB0008958091F500806480937D
:1026E000F5006093FC0008958091F5008068809368
:1026F000F5006093FD0008954B3010F04AE002C0F1
:102700004423A9F1813099F0813030F08230C9F052
:10271000833009F050C020C081E0809312014093C3
:102720001A01662311F0AF980895AF9A0895809327
:10273000130140931B01662311F0AD980895AD9AE3
:10274000089581E08093140140931C01662311F0E9
:1027500093980895939A089581E08093150140938A
:102760001D01662311F0AB980895AB9A089581304E
:1027700071F0813028F0823089F08330E1F415C0A7
:102780001092120110921A01AF98AE98089510920B
:10279000130110921B01AD98AC980895109214018A
:1027A00010921C019398969808951092150110921A
:1027B0001D01AB98C49808952091F400E82FF0E033
:1027C000319781E090E00E2E02C0880F991F0A9485
:1027D000E2F7282B2093F400665A7F4F8EE890E0B2
:1027E0009C01629FC001639F900D729F900D112408
:1027F0008054944DEE0FFF1FE050FF4F9183808374
:1028000089B7806189BF08952091F400E82FF0E036
:1028100081E090E00E2E02C0880F991F0A94E2F723
:10282000809582238093F400EE0FFF1FE050FF4F4E
:102830001182108289B78F7E89BF08958BE083BF94
:102840008DE78CBF89B7826089BF81E08EBD8FEB39
:1028500093E69DBD8CBD1BBC1ABC89B7846089BF43
:10286000089578941F920F920FB60F9211248F93B0
:102870009F93809110019091110101969093110105
:102880008093100180911201882349F090911A01E0
:1028900080916801891710F4AE9A01C0AE988091BA
:1028A0001301882349F090911B01809168018917D9
:1028B00010F4AC9A01C0AC9880911401882349F0BF
:1028C00090911C0180916801891710F4969A01C0BB
:1028D000969880911501882349F090911D0180916F
:1028E0006801891710F4C49A01C0C4988091F5005A
:1028F00080FF09C09091F60080916801891710F45B
:10290000C09A01C0C0988091F50081FF09C09091E4
:10291000F70080916801891710F4C19A01C0C1982D
:102920008091F50082FF09C09091F80080916801C4
:10293000891710F4C29A01C0C2988091F50083FFF4
:1029400009C09091F90080916801891710F4949A58
:1029500001C094988091F50084FF09C09091FA001D
:1029600080916801891710F4959A01C0959880911B
:10297000F50085FF09C09091FB00809168018917DF
:1029800010F4C59A01C0C5988091F50086FF09C072
:102990009091FC0080916801891710F4C69A01C0DB
:1029A000C6988091F50087FF09C09091FD00809145
:1029B0006801891710F4C79A01C0C798809168010F
:1029C0008F5F809368018150893010F01092680108
:1029D0009F918F910F900FBE0F901F9018951F928F
:1029E0000F920FB60F9211242F938F939F93EF9313
:1029F000FF938FEB93E69DBD8CBD8091F4002091F9
:102A0000FE0090E002C0959587952A95E2F780FF39
:102A100040C0E091FE00F0E0EE0FFF1FE050FF4FDE
:102A20008081918181549C499BBD8ABD8091FE002B
:102A3000882311F4C09A29C08091FE00813011F4DE
:102A4000C19A23C08091FE00823011F4C29A1DC049
:102A50008091FE00833011F4949A17C08091FE009B
:102A6000843011F4959A11C08091FE00853011F4E4
:102A7000C59A0BC08091FE00863011F4C69A05C03D
:102A80008091FE00873009F4C79A8091FE00809300
:102A9000FF008091FE008F5F8093FE008091FE001A
:102AA000883010F01092FE00FF91EF919F918F916E
:102AB0002F910F900FBE0F901F9018951F920F929D
:102AC0000FB60F9211248F938091FF00882311F489
:102AD000C09829C08091FF00813011F4C19823C0B3
:102AE0008091FF00823011F4C2981DC08091FF00D8
:102AF000833011F4949817C08091FF00843011F452
:102B0000959811C08091FF00853011F4C5980BC0D5
:102B10008091FF00863011F4C69805C08091FF00B7
:102B2000873009F4C7988F910F900FBE0F901F90B8
:102B300018950CC00000000000000000000000001C
:102B4000000000000000000000008150882391F781
:102B500008951F93CF93DF93EC0108C010E084E643
:102B60000E9499151F5F1A30D1F721972097B1F76E
:102B7000DF91CF911F9108955D9BFECF8CB9089591
:102B80001F93CF93DF93182FEB0109C0C398CE0199
:102B90000E94A915C39ACE010E94A91511501123B4
:102BA000A9F7DF91CF911F91089582E08BB988E159
:102BB0008AB986E080BD10BC80E189B98CEB95E1D3
:102BC00060E070E00E94FC1D08951ABA8FEF87BB89
:102BD00085B3876085BB88EF84BB8AE781BBC39AD6
:102BE0000E94D5158BE083BF8DE78CBF89B78260CB
:102BF00089BF81E08EBD8FEB93E69DBD8CBD1BBC74
:102C00001ABC89B7846089BF0E94701678940895B1
:102C10001F920F920FB60F9211242F938F939F93B1
:102C200083EC84BD8091710190917201892B39F1FF
:102C300080916F0190917001883C9105B9F41092D8
:102C4000700110926F011092720110927101109236
:102C50006E0110926D011092760110927501109222
:102C6000770110926C0110926B0109C080916F0185
:102C70009091700101969093700180936F01809103
:102C80007B0190917C01855F9942B0F480917B013A
:102C900090917C01019690937C0180937B018091BF
:102CA00025018533A9F410926A01109269011092EE
:102CB0007801109225010CC080917801882341F0A1
:102CC00010926A0110926901109225011092780108
:102CD0009F918F912F910F900FBE0F901F9018957D
:102CE00081E085BF80E48BBF84EC84BD82E085BD3C
:102CF00089B7806489BF08951F920F920FB60F9213
:102D000011241F932F933F934F935F936F937F9360
:102D10008F939F93AF93BF93EF93FF938BB78F7B6B
:102D20008BBF80916F0190917001582F81E090E0EE
:102D300090937201809371011092700110926F0153
:102D400080916B0190916C01892BC9F4852F89507A
:102D5000803108F00BC180916B0190916C0101965C
:102D600090936C0180936B01809175019091760135
:102D7000850F911D9093760180937501F7C0809126
:102D80006B0190916C01892B09F4F0C08091750161
:102D900090917601850F911D909376018093750136
:102DA00040917701E42FF0E0209175013091760198
:102DB000C901880F991F880F991F820F931F8A5A84
:102DC000904026E0969587952A95E1F7E358FE4FC7
:102DD00080834F5F409377018091750190917601D8
:102DE000843B910508F4C2C08091750190917601F1
:102DF000893C910508F0BAC05950503108F0A8C07C
:102E000040E050E01AE061E070E0FA01E358FE4F64
:102E100080818A3078F59A012F5F3F4FF901E3589E
:102E2000FE4F80818B3008F01083FA01E358FE4F8B
:102E3000E081D901A358BE4F12C020916D0130919D
:102E40006E01CB010E2E02C0880F991F0A94E2F783
:102E5000822B932B90936E0180936D01EF5F8C9189
:102E6000E81758F38C918A3029F04E5F5F4F4A3053
:102E7000510559F610927C0110927B0180916D01F1
:102E800090916E018F73907090936A0180936901A5
:102E9000989902C089E001C088E0999B82609A9B62
:102EA000846040916D0150916E0196E05695479572
:102EB0009A95E1F7841709F04BC080916D019091CC
:102EC0006E018F73907090936A018093690181E025
:102ED0008093780180937A018091690190916A01D1
:102EE0008093250120916D0130916E0100D000D0BA
:102EF00000D0EDB7FEB7319685E890E0ADB7BEB72C
:102F000012969C938E9311974283138286E0369596
:102F100027958A95E1F7248315820E94481E209107
:102F2000690130916A010F900F90EDB7FEB73196AD
:102F300086E990E0ADB7BEB712969C938E93119739
:102F4000228313820E94481E0F900F900F900F90C3
:102F500010926E0110926D0110927601109275011F
:102F60001092770110926C0110926B0180E48BBF7C
:102F7000FF91EF91BF91AF919F918F917F916F9151
:102F80005F914F913F912F911F910F900FBE0F9026
:102F90001F901895A0E0B0E0E0EDF7E10C94C51D9E
:102FA000DC012B01FA019C91923008F439C1EB014C
:102FB0008881823008F433C1943069F4843009F098
:102FC0002FC111969C9111978981981709F428C1F6
:102FD000AFE9B0E025C1843009F421C18230A9F401
:102FE000923009F01DC19A01AD0188E0EA01099013
:102FF000AE01E90109929E018150C1F7E201898188
:1030000011969C918923818308C1923009F407C1EC
:1030100012962D903C901397EB018A819B81149618
:10302000AD90BD90CD90DC901797EC80FD800E8127
:103030001F819101281B390BB90137FF04C0662796
:103040007727621B730B603271050CF061C012169A
:1030500013066CF537014801062E04C09694879438
:10306000779467940A94D2F721E030E040E050E092
:1030700004C0220F331F441F551F6A95D2F72150F9
:103080003040404050402E213F2140235123211504
:1030900031054105510521F021E030E040E050E0EC
:1030A00079018A01E628F728082919293CC0232B31
:1030B000D1F1260E371E35014601062E04C0969426
:1030C0008794779467940A94D2F721E030E040E047
:1030D00050E004C0220F331F441F551F6A95D2F7DA
:1030E00021503040404050402A213B214C215D215D
:1030F000211531054105510521F021E030E040E086
:1031000050E059016A01A628B728C828D9280BC061
:10311000821593052CF01C01AA24BB24650103C071
:10312000EE24FF24870111969C91D20111968C9177
:10313000981709F445C0992339F0A80197012A1975
:103140003B094C095D0906C0A60195012E193F09EE
:10315000400B510B57FD08C0118233822282248319
:103160003583468357831DC081E081833382228269
:1031700088279927DC01821B930BA40BB50B848352
:103180009583A683B7830DC0220F331F441F551F9D
:103190002483358346835783828193810197938368
:1031A00082832481358146815781DA01C9010197E3
:1031B000A109B1098F5F9F4FAF4FBF4328F30BC0E9
:1031C000918333822282EA0CFB1C0C1D1D1DE482BC
:1031D000F5820683178383E08083248135814681CD
:1031E000578157FF1AC0C901AA2797FDA095BA2F8A
:1031F00081709070A070B07056954795379527955F
:10320000822B932BA42BB52B84839583A683B78322
:1032100082819381019693838283DF0101C0D20171
:10322000CD01CDB7DEB7E2E10C94E11DA0E2B0E044
:10323000ECE1F9E10C94D11D69837A838B839C8343
:103240002D833E834F835887E9E0EE2EF12CEC0E60
:10325000FD1ECE010196B7010E94A31C8E010F5ED8
:103260001F4FCE010596B8010E94A31C8A8991E0E8
:1032700089278A8BC701B801AE01475E5F4F0E9464
:10328000CA170E94CE1BA096E6E00C94ED1DA0E2AA
:10329000B0E0EDE4F9E10C94D11D69837A838B836E
:1032A0009C832D833E834F835887F9E0EF2EF12CCA
:1032B000EC0EFD1ECE010196B7010E94A31C8E01EB
:1032C0000F5E1F4FCE010596B8010E94A31CC701D7
:1032D000B801AE01475E5F4F0E94CA170E94CE1B25
:1032E000A096E6E00C94ED1DA0E2B0E0EAE7F9E17B
:1032F0000C94C51D69837A838B839C832D833E83C5
:103300004F835887CE010196BE01675F7F4F0E94B1
:10331000A31CCE010596BE016F5E7F4F0E94A31CC9
:103320009985923088F089898230C8F0943019F4F8
:10333000823051F404C0843029F4923081F48FE952
:1033400090E0C6C0923049F420E09A858A899813AB
:1033500021E02A87CE010996BBC0823049F420E0E3
:103360009A858A89981321E02A8BCE014196B0C0B4
:103370002D843E844F8458886D887E888F88988CF1
:10338000EE24FF248701AA24BB24650140E050E01D
:1033900060E070E0E0E0F0E0C10181709070892BA6
:1033A000E9F0E60CF71C081D191D9A01AB012A0D66
:1033B0003B1D4C1D5D1D80E090E0A0E0B0E0E614F8
:1033C000F7040805190520F481E090E0A0E0B0E0E2
:1033D000BA01A901480F591F6A1F7B1FAA0CBB1C09
:1033E000CC1CDD1C97FE08C081E090E0A0E0B0E0BE
:1033F000A82AB92ACA2ADB2A3196E032F10549F017
:10340000660C771C881C991C569447943794279413
:10341000C3CFFA85EA892B893C898B859C85280F47
:10342000391F2E5F3F4F17C0CA0181709070892BE2
:1034300061F016950795F794E79480E090E0A0E09E
:10344000B0E8E82AF92A0A2B1B2B76956795579541
:1034500047952F5F3F4F77FDE7CF0CC0440F551FB7
:10346000661F771F17FD4160EE0CFF1C001F111F28
:1034700021503040403090E0590790E0690790E4D7
:10348000790760F32B8F3C8FDB01CA018F77907037
:10349000A070B07080349105A105B10561F447FDBD
:1034A0000AC0E114F1040105110529F0405C5F4FE9
:1034B0006F4F7F4F40781A8EFE1711F081E08A8F90
:1034C0004D8F5E8F6F8F78A383E0898FCE014996F1
:1034D0000E94CE1BA096E2E10C94E11DA8E1B0E0B1
:1034E000E4E7FAE10C94CD1D69837A838B839C8396
:1034F0002D833E834F835887B9E0EB2EF12CEC0EE1
:10350000FD1ECE010196B7010E94A31C8E010F5E25
:103510001F4FCE010596B8010E94A31C29852230B9
:1035200008F47EC03989323010F4B8017CC08A8535
:103530009A8989278A87243011F0223031F42317A1
:1035400009F06EC06FE970E06EC0343039F41D864A
:103550001E861F86188A1C861B8604C0323021F402
:1035600084E08987B7015FC02B853C858B899C8966
:10357000281B390B3C872B87ED84FE840F85188927
:10358000AD88BE88CF88D88CEA14FB040C051D05D5
:1035900040F4EE0CFF1C001F111F215030403C87EF
:1035A0002B8720E030E040E050E080E090E0A0E0B9
:1035B000B0E460E070E0EA14FB040C051D0540F087
:1035C000282B392B4A2B5B2BEA18FB080C091D0909
:1035D000B695A79597958795EE0CFF1C001F111FB8
:1035E0006F5F7F4F6F31710531F7DA01C9018F7756
:1035F0009070A070B07080349105A105B10561F4A0
:1036000027FD0AC0E114F1040105110529F0205C31
:103610003F4F4F4F5F4F20782D873E874F87588B06
:10362000BE01675F7F4FCB010E94CE1B6896EAE028
:103630000C94E91DA8E1B0E0E0E2FBE10C94D11D9F
:1036400069837A838B839C832D833E834F83588742
:1036500089E0E82EF12CEC0EFD1ECE010196B7019B
:103660000E94A31C8E010F5E1F4FCE010596B8016C
:103670000E94A31C8985823040F08989823028F01D
:10368000C701B8010E941B1D01C08FEF6896E6E0DC
:103690000C94ED1DA8E1B0E0E0E5FBE10C94D11D38
:1036A00069837A838B839C832D833E834F835887E2
:1036B00089E0E82EF12CEC0EFD1ECE010196B7013B
:1036C0000E94A31C8E010F5E1F4FCE010596B8010C
:1036D0000E94A31C8985823040F08989823028F0BD
:1036E000C701B8010E941B1D01C081E06896E6E099
:1036F0000C94ED1DACE0B0E0E0E8FBE10C94D51DCE
:1037000069837A838B839C83CE010196BE016B5FB4
:103710007F4F0E94A31C8D81823061F1823050F175
:10372000843021F48E81882351F12EC02F81388579
:1037300037FD20C06E812F3131051CF06623F9F072
:1037400023C08EE190E0821B930B29853A854B853F
:103750005C8504C056954795379527958A95D2F78D
:103760006623B1F050954095309521953F4F4F4FCE
:103770005F4F0EC020E030E040E050E009C02FEF86
:103780003FEF4FEF5FE704C020E030E040E050E85B
:10379000B901CA012C96E2E00C94F11DDF92EF9280
:1037A000FF920F931F93FC01E480F580068117813F
:1037B000D1808081823048F480E090E0A0E1B0E0E8
:1037C000E82AF92A0A2B1B2BA5C0843009F49FC0D4
:1037D000823021F4EE24FF24870105C0E114F104B6
:1037E0000105110519F4E0E0F0E096C062817381F3
:1037F0009FEF623879070CF05BC022E83FEF261B91
:10380000370B2A3131052CF020E030E040E050E069
:103810002AC0B801A701022E04C076956795579576
:1038200047950A94D2F781E090E0A0E0B0E004C0B0
:10383000880F991FAA1FBB1F2A95D2F70197A109CC
:10384000B1098E219F21A023B1230097A105B105C5
:1038500021F081E090E0A0E0B0E09A01AB01282BDC
:10386000392B4A2B5B2BDA01C9018F779070A0703E
:10387000B07080349105A105B10539F427FF09C066
:10388000205C3F4F4F4F5F4F04C0215C3F4F4F4F75
:103890005F4FE0E0F0E02030A0E03A07A0E04A0708
:1038A000A0E45A0710F0E1E0F0E079018A0127C0B6
:1038B0006038710564F5FB01E158FF4FD801C7017D
:1038C0008F779070A070B07080349105A105B1051C
:1038D00039F4E7FE0DC080E490E0A0E0B0E004C061
:1038E0008FE390E0A0E0B0E0E80EF91E0A1F1B1F76
:1038F00017FF05C016950795F794E794319687E072
:1039000016950795F794E7948A95D1F705C0EE24AC
:10391000FF248701EFEFF0E06E2F6795662767952C
:10392000902F9F77D794DD24D7948E2F8695492F9B
:10393000462B582F5D29B701CA011F910F91FF90A7
:10394000EF90DF900895FC01DB01408151812281DD
:10395000622F6F7770E0221F2227221F9381892F09
:10396000880F822B282F30E0991F9927991F1196D5
:103970009C93119721153105A9F541155105610554
:10398000710511F482E037C082E89FEF13969C9393
:103990008E9312979A01AB0167E0220F331F441FE9
:1039A000551F6A95D1F783E08C930DC0220F331F0A
:1039B000441F551F12968D919C9113970197139652
:1039C0009C938E931297203080E0380780E0480760
:1039D00080E4580758F314962D933D934D935C93D0
:1039E000179708952F3F310579F441155105610569
:1039F000710519F484E08C93089564FF03C081E09D
:103A00008C9312C01C9210C02F57304013963C93D9
:103A10002E93129783E08C9387E0440F551F661F07
:103A2000771F8A95D1F7706414964D935D936D93CB
:103A30007C93179708951F93DC01FB019C919230B2
:103A400008F447C08081823008F443C0943051F4B8
:103A500011961C91843099F58181682F70E0611B6B
:103A600071093FC0843021F0923031F48230B9F1D5
:103A70008181882389F12DC011961C911197823084
:103A8000F1F081811817D9F412962D913C9113977A
:103A9000828193818217930794F028173907BCF02D
:103AA00014968D919D910D90BC91A02D248135810E
:103AB00046815781281739074A075B0718F41123F5
:103AC00041F00AC082179307A407B50740F41123F9
:103AD00019F061E070E005C06FEF7FEF02C060E0B9
:103AE00070E0CB011F910895E89409C097FB3EF464
:103AF00090958095709561957F4F8F4F9F4F99233B
:103B0000A9F0F92F96E9BB279395F69587957795B8
:103B10006795B795F111F8CFFAF4BB0F11F460FF78
:103B20001BC06F5F7F4F8F4F9F4F16C0882311F0D0
:103B300096E911C0772321F09EE8872F762F05C0E4
:103B4000662371F096E8862F70E060E02AF09A957F
:103B5000660F771F881FDAF7880F9695879597F974
:103B60000895AA1BBB1B51E107C0AA1FBB1FA617C4
:103B7000B70710F0A61BB70B881F991F5A95A9F716
:103B800080959095BC01CD0108952F923F924F9260
:103B90005F926F927F928F929F92AF92BF92CF92DD
:103BA000DF92EF92FF920F931F93CF93DF93CDB7E6
:103BB000DEB7CA1BDB0B0FB6F894DEBF0FBECDBF5E
:103BC00009942A88398848885F846E847D848C842F
:103BD0009B84AA84B984C884DF80EE80FD800C8138
:103BE0001B81AA81B981CE0FD11D0FB6F894DEBF1B
:103BF0000FBECDBFED0108950F931F93CF93DF93B9
:103C00008C01EB01009731F46115710519F420E086
:103C100030E038C081E090E06EE070E00E943A2031
:103C2000FC019C01009771F180E88383209771F07B
:103C3000D387C28781E8838380918A0190918B0129
:103C4000892B21F4F0938B01E0938A010115110572
:103C5000C9F01187008783818260838380918C0102
:103C600090918D01892B71F4F0938D01E0938C017B
:103C700080918E0190918F01892B21F4F0938F0117
:103C8000E0938E01C901DF91CF911F910F910895AB
:103C9000A0E0B0E0EEE4FEE10C94D51DFE01359607
:103CA0006191719180918C0190918D01AF010E9481
:103CB0005D1E2096E2E00C94F11DABE0B0E0E3E67F
:103CC000FEE10C94C51D3C012B015A01FC01178239
:103CD0001682838181FD03C06FEF7FEFC6C19AE03A
:103CE000892E1E010894211C311CF3012381F2014D
:103CF00023FD859123FF81912F01882309F4B2C10F
:103D0000853239F423FD859123FF81912F0185327E
:103D100029F490E0B3010E947821E7CF982FFF2487
:103D2000EE249924FFE1FF15D0F09B3269F09C321C
:103D300028F4903259F0933291F40EC09D3249F03C
:103D4000903369F441E024C052E0F52A84E0F82A77
:103D500028C098E0F92A25C0E0E1FE2A22C0F7FC3D
:103D600029C0892F80538A3070F4F6FE05C0989CD4
:103D7000902C1124980E15C0E89CE02C1124E80E1C
:103D8000F0E2FF2A0EC09E3229F4F6FC6BC140E43B
:103D9000F42A07C09C3619F450E8F52A02C0983678
:103DA00049F4F20123FD959123FF91912F0199236D
:103DB00009F0B8CF892F8554833018F080528330B2
:103DC00038F444E050E0A40EB51E5FE359830FC001
:103DD000933631F0933779F0933509F056C020C00F
:103DE000F5018081898342E050E0A40EB51E610197
:103DF00001E010E012C0F501C080D180F6FC03C0E4
:103E00006FEF7FEF02C0692D70E042E050E0A40E3A
:103E1000B51EC6010E946D218C015FE7F52214C01A
:103E2000F501C080D180F6FC03C06FEF7FEF02C0C8
:103E3000692D70E042E050E0A40EB51EC6010E945C
:103E40005B218C0150E8F52AF3FE07C01AC080E21E
:103E500090E0B3010E947821EA948E2D90E008173B
:103E60001907A8F30EC0F601F7FC8591F7FE8191C2
:103E70006F0190E0B3010E947821E110EA940150B3
:103E800010400115110579F7EAC0943611F0993602
:103E900069F5F7FE08C0F501208131814281538127
:103EA00084E090E00AC0F501808191819C01442763
:103EB00037FD4095542F82E090E0A80EB91E9FE692
:103EC000F92257FF09C050954095309521953F4FF5
:103ED0004F4F5F4FE0E8FE2ACA01B901A1012AE075
:103EE00030E00E94A421D82ED21840C0953729F482
:103EF0001F2D1F7E2AE030E01DC01F2D197F9F3629
:103F000061F0903720F4983509F0ACC00FC09037BD
:103F100039F0983709F0A6C004C028E030E00AC0A4
:103F2000106114FD146020E130E004C014FD16603F
:103F300020E132E017FF08C0F501608171818281C4
:103F4000938144E050E008C0F50180819181BC017B
:103F500080E090E042E050E0A40EB51EA1010E9476
:103F6000A421D82ED2188FE7F82EF122F6FE0BC02E
:103F70005EEFF522D91438F4F4FE07C0F2FC05C058
:103F80008FEEF82202C01D2D01C0192DF4FE0DC0C8
:103F9000FE01ED0DF11D8081803319F499EEF922B7
:103FA00008C01F5FF2FE05C003C08F2D867809F0A0
:103FB0001F5F0F2DF3FC14C0F0FE0FC01E1510F094
:103FC0009D2C0BC09D2C9E0C911A1E2D06C080E2CC
:103FD00090E0B3010E9478211F5F1E15C0F304C05A
:103FE0001E1510F4E11A01C0EE2404FF0FC080E397
:103FF00090E0B3010E94782102FF1DC001FD03C0C3
:1040000088E790E00EC088E590E00BC0802F8678AE
:1040100091F001FF02C08BE201C080E2F7FC8DE26B
:1040200090E0B3010E94782106C080E390E0B301E4
:104030000E9478219A94D914C0F3DA94F101ED0D1D
:10404000F11D808190E0B3010E947821DD20A9F765
:1040500006C080E290E0B3010E947821EA94EE204D
:10406000C1F743CEF30166817781CB012B96E2E164
:104070000C94E11D0F931F93CF93DF93689F8001F2
:10408000699F100D789F100D1124C8010E945620C1
:10409000EC01009729F060E070E0A8010E94662121
:1040A000CE01DF91CF911F910F910895CF93DF93B0
:1040B000BC018230910510F462E070E0A0919201A1
:1040C000B0919301ED01E0E0F0E040E050E021C06C
:1040D000888199818617970769F48A819B81309737
:1040E00019F09383828304C090939301809392018B
:1040F000FE0134C06817790738F44115510519F0ED
:104100008417950708F4AC01FE018A819B819C010C
:10411000E9012097E9F641155105A9F1CA01861B6D
:10412000970B049708F4BA01E0E0F0E02AC08D9103
:104130009C91119784179507F9F46417750781F41A
:1041400012968D919C911397309719F093838283E7
:1041500004C09093930180939201FD0132964FC069
:10416000CA01861B970BFD01E80FF91F619371933C
:1041700002978D939C9343C0FD01828193819C01A2
:10418000D9011097A1F68091900190919101892B0E
:1041900041F48091A9009091AA009093910180939D
:1041A00090014091AB005091AC004115510541F494
:1041B0004DB75EB78091A7009091A800481B590B9E
:1041C000209190013091910124173507B0F4CA0174
:1041D000821B930B8617970780F0AB014E5F5F4FF2
:1041E0008417950750F0420F531F5093910140934D
:1041F0009001F9016193719302C0E0E0F0E0CF011A
:10420000DF91CF910895CF93DF93009709F450C0C9
:10421000EC0122971B821A82A0919201B091930126
:10422000109709F140E050E0AC17BD0708F1BB83DF
:10423000AA83FE0121913191E20FF31FAE17BF0750
:1042400079F48D919C911197280F391F2E5F3F4F64
:104250003983288312968D919C9113979B838A832F
:104260004115510571F4D0939301C093920120C080
:1042700012968D919C911397AD01009711F0DC017E
:10428000D3CFFA01D383C28321913191E20FF31F7F
:10429000CE17DF0769F488819981280F391F2E5FB7
:1042A0003F4FFA01318320838A819B8193838283EC
:1042B000DF91CF910895FC0105906150704001108D
:1042C000D8F7809590958E0F9F1F0895DC0101C04F
:1042D0006D9341505040E0F70895FC0161507040EB
:1042E00001900110D8F7809590958E0F9F1F08952B
:1042F0000F931F93CF93DF938C01EB018B8181FF91
:104300001BC082FF0DC02E813F818C819D812817AB
:10431000390764F4E881F9810193F983E88306C0E1
:10432000E885F985802F0995892B31F48E819F814D
:1043300001969F838E8302C00FEF1FEFC801DF91AC
:10434000CF911F910F910895FA01AA27283051F1BA
:10435000203181F1E8946F936E7F6E5F7F4F8F4FB6
:104360009F4FAF4FB1E03ED0B4E03CD0670F781F15
:10437000891F9A1FA11D680F791F8A1F911DA11DFA
:104380006A0F711D811D911DA11D20D009F4689433
:104390003F912AE0269F11243019305D3193DEF6DB
:1043A000CF010895462F4770405D4193B3E00FD091
:1043B000C9F7F6CF462F4F70405D4A3318F0495D7C
:1043C00031FD4052419302D0A9F7EACFB4E0A6955F
:1043D0009795879577956795BA95C9F70097610581
:1043E000710508959B01AC010A2E069457954795D7
:1043F00037952795BA95C9F7620F731F841F951FCC
:08440000A01D0895F894FFCF00
:1044080073633B007364302C303B00737300736438
:10441800312C303B002C3E363C33393F3D350032A1
:1044280023342526370A0D4D49443A25782C20494E
:10443800443A2578200076616C3A202578000800F7
:0E4448000000000000000020009401000000B1
:00000001FF
